{
  "abi": [
    {
      "inputs": [
        {
          "internalType": "string",
          "name": "_name",
          "type": "string"
        },
        {
          "internalType": "string",
          "name": "_description",
          "type": "string"
        },
        {
          "internalType": "address",
          "name": "_token",
          "type": "address"
        }
      ],
      "name": "createProposal",
      "outputs": [
        {
          "internalType": "address",
          "name": "newProposal",
          "type": "address"
        }
      ],
      "stateMutability": "nonpayable",
      "type": "function"
    },
    {
      "inputs": [
        {
          "internalType": "uint256",
          "name": "",
          "type": "uint256"
        }
      ],
      "name": "createdProposals",
      "outputs": [
        {
          "internalType": "address",
          "name": "",
          "type": "address"
        }
      ],
      "stateMutability": "view",
      "type": "function"
    },
    {
      "inputs": [],
      "name": "getProposalsLength",
      "outputs": [
        {
          "internalType": "uint256",
          "name": "",
          "type": "uint256"
        }
      ],
      "stateMutability": "view",
      "type": "function"
    }
  ],
  "bytecode": {
    "object": "0x608060405234801561001057600080fd5b50610dac806100206000396000f3fe608060405234801561001057600080fd5b50600436106100415760003560e01c8063aefd16d114610046578063b85c1aee14610076578063bc378a7314610089575b600080fd5b6100596100543660046101fe565b61009a565b6040516001600160a01b0390911681526020015b60405180910390f35b610059610084366004610282565b610124565b60005460405190815260200161006d565b60008383836040516100ab9061014e565b6100b7939291906102e1565b604051809103906000f0801580156100d3573d6000803e3d6000fd5b50600080546001810182559080527f290decd9548b62a8d60345a988386fc84ba6bc95484008f6362f93160ef3e5630180546001600160a01b0319166001600160a01b038316179055949350505050565b6000818154811061013457600080fd5b6000918252602090912001546001600160a01b0316905081565b610a578061032083390190565b634e487b7160e01b600052604160045260246000fd5b600082601f83011261018257600080fd5b813567ffffffffffffffff8082111561019d5761019d61015b565b604051601f8301601f19908116603f011681019082821181831017156101c5576101c561015b565b816040528381528660208588010111156101de57600080fd5b836020870160208301376000602085830101528094505050505092915050565b60008060006060848603121561021357600080fd5b833567ffffffffffffffff8082111561022b57600080fd5b61023787838801610171565b9450602086013591508082111561024d57600080fd5b5061025a86828701610171565b92505060408401356001600160a01b038116811461027757600080fd5b809150509250925092565b60006020828403121561029457600080fd5b5035919050565b6000815180845260005b818110156102c1576020818501810151868301820152016102a5565b506000602082860101526020601f19601f83011685010191505092915050565b6060815260006102f4606083018661029b565b8281036020840152610306818661029b565b91505060018060a01b038316604083015294935050505056fe60e06040523480156200001157600080fd5b5060405162000a5738038062000a5783398101604081905262000034916200015e565b604080516060810182526001808252602082018181529282018181523260c052825160035592516004559151600555906200007085826200027a565b5060026200007f84826200027a565b50506001600160a01b031660805250504260a05262000346565b634e487b7160e01b600052604160045260246000fd5b600082601f830112620000c157600080fd5b81516001600160401b0380821115620000de57620000de62000099565b604051601f8301601f19908116603f0116810190828211818310171562000109576200010962000099565b816040528381526020925086838588010111156200012657600080fd5b600091505b838210156200014a57858201830151818301840152908201906200012b565b600093810190920192909252949350505050565b6000806000606084860312156200017457600080fd5b83516001600160401b03808211156200018c57600080fd5b6200019a87838801620000af565b94506020860151915080821115620001b157600080fd5b50620001c086828701620000af565b604086015190935090506001600160a01b0381168114620001e057600080fd5b809150509250925092565b600181811c908216806200020057607f821691505b6020821081036200022157634e487b7160e01b600052602260045260246000fd5b50919050565b601f8211156200027557600081815260208120601f850160051c81016020861015620002505750805b601f850160051c820191505b8181101562000271578281556001016200025c565b5050505b505050565b81516001600160401b0381111562000296576200029662000099565b620002ae81620002a78454620001eb565b8462000227565b602080601f831160018114620002e65760008415620002cd5750858301515b600019600386901b1c1916600185901b17855562000271565b600085815260208120601f198616915b828110156200031757888601518255948401946001909101908401620002f6565b5085821015620003365787850151600019600388901b60f8161c191681555b5050505050600190811b01905550565b60805160a05160c0516106cc6200038b6000396000818161015f01526105100152600061012201526000818161019e0152818161037a01526103bf01526106cc6000f3fe608060405234801561001057600080fd5b506004361061009e5760003560e01c80638da5cb5b116100665780638da5cb5b1461015a578063a530cbf114610199578063b3f98adc146101c0578063b9223946146101d5578063ecb70fb7146101dd57600080fd5b806309eef43e146100a35780631a3a68bc146100db578063343055451461010857806344fbc8931461011d5780636a2275db14610152575b600080fd5b6100c66100b136600461057b565b60066020526000908152604090205460ff1681565b60405190151581526020015b60405180910390f35b6003546004546005546100ed92919083565b604080519384526020840192909252908201526060016100d2565b6101106101ea565b6040516100d291906105ab565b6101447f000000000000000000000000000000000000000000000000000000000000000081565b6040519081526020016100d2565b610110610278565b6101817f000000000000000000000000000000000000000000000000000000000000000081565b6040516001600160a01b0390911681526020016100d2565b6101817f000000000000000000000000000000000000000000000000000000000000000081565b6101d36101ce3660046105f9565b610285565b005b6101d3610505565b6000546100c69060ff1681565b600280546101f79061061c565b80601f01602080910402602001604051908101604052809291908181526020018280546102239061061c565b80156102705780601f1061024557610100808354040283529160200191610270565b820191906000526020600020905b81548152906001019060200180831161025357829003601f168201915b505050505081565b600180546101f79061061c565b60005460ff16156102cb5760405162461bcd60e51b815260206004820152600b60248201526a2b37ba329022b73232b21760a91b60448201526064015b60405180910390fd5b60008160ff161180156102e2575060038160ff1611155b6103255760405162461bcd60e51b81526020600482015260146024820152734f7074696f6e206f7574206f662072616e67652160601b60448201526064016102c2565b3360009081526006602052604090205460ff16156103765760405162461bcd60e51b815260206004820152600e60248201526d416c726561647920766f7465642160901b60448201526064016102c2565b60037f00000000000000000000000000000000000000000000000000000000000000006001600160a01b03161561047f576040516370a0823160e01b81523360048201526000907f00000000000000000000000000000000000000000000000000000000000000006001600160a01b0316906370a0823190602401602060405180830381865afa15801561040e573d6000803e3d6000fd5b505050506040513d601f19601f820116820180604052508101906104329190610656565b1161047f5760405162461bcd60e51b815260206004820152601b60248201527f496e73756666696369656e7420746f6b656e2062616c616e636521000000000060448201526064016102c2565b336000908152600660205260409020805460ff1916600190811790915560ff831690036104c65760018160000160008282546104bb919061066f565b909155506105019050565b8160ff166002036104e65760018160010160008282546104bb919061066f565b60018160020160008282546104fb919061066f565b90915550505b5050565b336001600160a01b037f0000000000000000000000000000000000000000000000000000000000000000161461056c5760405162461bcd60e51b815260206004820152600c60248201526b4e6f74204f776e657221212160a01b60448201526064016102c2565b6000805460ff19166001179055565b60006020828403121561058d57600080fd5b81356001600160a01b03811681146105a457600080fd5b9392505050565b600060208083528351808285015260005b818110156105d8578581018301518582016040015282016105bc565b506000604082860101526040601f19601f8301168501019250505092915050565b60006020828403121561060b57600080fd5b813560ff811681146105a457600080fd5b600181811c9082168061063057607f821691505b60208210810361065057634e487b7160e01b600052602260045260246000fd5b50919050565b60006020828403121561066857600080fd5b5051919050565b8082018082111561069057634e487b7160e01b600052601160045260246000fd5b9291505056fea2646970667358221220d4f29db20fdc5a215272e2897be4210d070b6d17098ea95bcb49ff9c506189fd64736f6c63430008140033a2646970667358221220fde881094bacd078574591d90e350906524cfe8cbcced510c0410bbe1955e0a064736f6c63430008140033",
    "linkReferences": {}
  },
  "methodIdentifiers": {
    "createProposal(string,string,address)": "aefd16d1",
    "createdProposals(uint256)": "b85c1aee",
    "getProposalsLength()": "bc378a73"
  },
  "id": 21
}